{
  "contractName": "Register",
  "abi": [
    {
      "constant": false,
      "inputs": [
        {
          "internalType": "string",
          "name": "_add",
          "type": "string"
        }
      ],
      "name": "addUser",
      "outputs": [],
      "payable": false,
      "stateMutability": "nonpayable",
      "type": "function"
    },
    {
      "constant": true,
      "inputs": [],
      "name": "getUsers",
      "outputs": [
        {
          "internalType": "string[]",
          "name": "",
          "type": "string[]"
        }
      ],
      "payable": false,
      "stateMutability": "view",
      "type": "function"
    },
    {
      "constant": true,
      "inputs": [],
      "name": "getCountOfUsers",
      "outputs": [
        {
          "internalType": "uint256",
          "name": "",
          "type": "uint256"
        }
      ],
      "payable": false,
      "stateMutability": "view",
      "type": "function"
    },
    {
      "constant": true,
      "inputs": [
        {
          "internalType": "string",
          "name": "_add",
          "type": "string"
        }
      ],
      "name": "isUser",
      "outputs": [
        {
          "internalType": "bool",
          "name": "",
          "type": "bool"
        }
      ],
      "payable": false,
      "stateMutability": "view",
      "type": "function"
    }
  ],
  "bytecode": "0x608060405234801561001057600080fd5b50610794806100206000396000f3fe608060405234801561001057600080fd5b506004361061004b5760003560e01c8062ce8e3e1461005057806305bbd7e01461006e57806318b8275a1461009e578063ba3fc89a146100ba575b600080fd5b6100586100d8565b60405161006591906105b7565b60405180910390f35b610088600480360361008391908101906103a9565b6101c1565b60405161009591906105d9565b60405180910390f35b6100b860048036036100b391908101906103a9565b610262565b005b6100c26102a4565b6040516100cf91906105f4565b60405180910390f35b60606000805480602002602001604051908101604052809291908181526020016000905b828210156101b8578382906000526020600020018054600181600116156101000203166002900480601f0160208091040260200160405190810160405280929190818152602001828054600181600116156101000203166002900480156101a45780601f10610179576101008083540402835291602001916101a4565b820191906000526020600020905b81548152906001019060200180831161018757829003601f168201915b5050505050815260200190600101906100fc565b50505050905090565b600080600090505b60008054905081101561025757826040516020016101e79190610589565b604051602081830303815290604052805190602001206000828154811061020a57fe5b9060005260206000200160405160200161022491906105a0565b60405160208183030381529060405280519060200120141561024a57600191505061025d565b80806001019150506101c9565b50600090505b919050565b600081908060018154018082558091505090600182039060005260206000200160009091929091909150908051906020019061029f9291906102b0565b505050565b60008080549050905090565b828054600181600116156101000203166002900490600052602060002090601f016020900481019282601f106102f157805160ff191683800117855561031f565b8280016001018555821561031f579182015b8281111561031e578251825591602001919060010190610303565b5b50905061032c9190610330565b5090565b61035291905b8082111561034e576000816000905550600101610336565b5090565b90565b600082601f83011261036657600080fd5b81356103796103748261063c565b61060f565b9150808252602083016020830185838301111561039557600080fd5b6103a08382846106fe565b50505092915050565b6000602082840312156103bb57600080fd5b600082013567ffffffffffffffff8111156103d557600080fd5b6103e184828501610355565b91505092915050565b60006103f683836104b3565b905092915050565b60006104098261068d565b61041381856106bb565b93508360208202850161042585610668565b8060005b85811015610461578484038952815161044285826103ea565b945061044d836106ae565b925060208a01995050600181019050610429565b50829750879550505050505092915050565b61047c816106e8565b82525050565b600061048d826106a3565b61049781856106dd565b93506104a781856020860161070d565b80840191505092915050565b60006104be82610698565b6104c881856106cc565b93506104d881856020860161070d565b6104e181610740565b840191505092915050565b600081546001811660008114610509576001811461052e57610572565b607f600283041661051a81876106dd565b955060ff1983168652808601935050610572565b6002820461053c81876106dd565b955061054785610678565b60005b828110156105695781548189015260018201915060208101905061054a565b82880195505050505b505092915050565b610583816106f4565b82525050565b60006105958284610482565b915081905092915050565b60006105ac82846104ec565b915081905092915050565b600060208201905081810360008301526105d181846103fe565b905092915050565b60006020820190506105ee6000830184610473565b92915050565b6000602082019050610609600083018461057a565b92915050565b6000604051905081810181811067ffffffffffffffff8211171561063257600080fd5b8060405250919050565b600067ffffffffffffffff82111561065357600080fd5b601f19601f8301169050602081019050919050565b6000819050602082019050919050565b60008190508160005260206000209050919050565b600081519050919050565b600081519050919050565b600081519050919050565b6000602082019050919050565b600082825260208201905092915050565b600082825260208201905092915050565b600081905092915050565b60008115159050919050565b6000819050919050565b82818337600083830152505050565b60005b8381101561072b578082015181840152602081019050610710565b8381111561073a576000848401525b50505050565b6000601f19601f830116905091905056fea365627a7a72315820d594ff9ebaf19c1b0d8ce13026585cb065adb26741cead49fb61b8f7df2ee1e66c6578706572696d656e74616cf564736f6c63430005110040",
  "source": "pragma solidity >=0.5.0 <0.6.0;\r\npragma experimental ABIEncoderV2;\r\ncontract Register {\r\n    string[] users;    // 用户列表\r\n\r\n    function addUser(string memory _add) public {\r\n        users.push(_add);\r\n    }\r\n\r\n    function getUsers () public view returns (string[] memory) {\r\n        return users;\r\n    }\r\n\r\n    function getCountOfUsers() public view returns (uint) {\r\n        return users.length;\r\n    }\r\n\r\n    function isUser(string memory _add) public view returns (bool) {\r\n        for (uint i = 0; i < users.length; i++) {\r\n            if (keccak256(abi.encodePacked(users[i])) == keccak256(abi.encodePacked(_add))) {\r\n                return true;\r\n            }\r\n        }\r\n        return false;\r\n    }\r\n\r\n}",
  "sourcePath": "E:\\RingBC\\contracts\\Register.sol",
  "compiler": {
    "name": "solc",
    "version": "0.5.17+commit.d19bba13.Emscripten.clang"
  },
  "schemaVersion": "3.4.4",
  "updatedAt": "2021-12-31T06:41:03.887Z",
  "devdoc": {
    "methods": {}
  },
  "userdoc": {
    "methods": {}
  }
}