{
  "contractName": "Register",
  "abi": [
    {
      "inputs": [
        {
          "internalType": "string",
          "name": "_add",
          "type": "string"
        }
      ],
      "name": "addUser",
      "outputs": [],
      "stateMutability": "nonpayable",
      "type": "function"
    },
    {
      "inputs": [],
      "name": "getUsers",
      "outputs": [
        {
          "internalType": "string[]",
          "name": "",
          "type": "string[]"
        }
      ],
      "stateMutability": "view",
      "type": "function"
    },
    {
      "inputs": [],
      "name": "getCountOfUsers",
      "outputs": [
        {
          "internalType": "uint256",
          "name": "",
          "type": "uint256"
        }
      ],
      "stateMutability": "view",
      "type": "function"
    },
    {
      "inputs": [
        {
          "internalType": "string",
          "name": "_add",
          "type": "string"
        }
      ],
      "name": "isUser",
      "outputs": [
        {
          "internalType": "bool",
          "name": "",
          "type": "bool"
        }
      ],
      "stateMutability": "view",
      "type": "function"
    }
  ],
  "bytecode": "0x608060405234801561001057600080fd5b50610902806100206000396000f3fe608060405234801561001057600080fd5b506004361061004b5760003560e01c8062ce8e3e1461005057806305bbd7e01461006e57806318b8275a1461009e578063ba3fc89a146100ba575b600080fd5b6100586100d8565b60405161006591906104a8565b60405180910390f35b61008860048036038101906100839190610613565b6101b1565b6040516100959190610677565b60405180910390f35b6100b860048036038101906100b39190610613565b61025f565b005b6100c261029e565b6040516100cf91906106ab565b60405180910390f35b60606000805480602002602001604051908101604052809291908181526020016000905b828210156101a857838290600052602060002001805461011b906106f5565b80601f0160208091040260200160405190810160405280929190818152602001828054610147906106f5565b80156101945780601f1061016957610100808354040283529160200191610194565b820191906000526020600020905b81548152906001019060200180831161017757829003601f168201915b5050505050815260200190600101906100fc565b50505050905090565b600080600090505b60008054905081101561025457826040516020016101d79190610763565b60405160208183030381529060405280519060200120600082815481106102015761020061077a565b5b9060005260206000200160405160200161021b919061083d565b60405160208183030381529060405280519060200120141561024157600191505061025a565b808061024c90610883565b9150506101b9565b50600090505b919050565b60008190806001815401808255809150506001900390600052602060002001600090919091909150908051906020019061029a9291906102aa565b5050565b60008080549050905090565b8280546102b6906106f5565b90600052602060002090601f0160209004810192826102d8576000855561031f565b82601f106102f157805160ff191683800117855561031f565b8280016001018555821561031f579182015b8281111561031e578251825591602001919060010190610303565b5b50905061032c9190610330565b5090565b5b80821115610349576000816000905550600101610331565b5090565b600081519050919050565b600082825260208201905092915050565b6000819050602082019050919050565b600081519050919050565b600082825260208201905092915050565b60005b838110156103b3578082015181840152602081019050610398565b838111156103c2576000848401525b50505050565b6000601f19601f8301169050919050565b60006103e482610379565b6103ee8185610384565b93506103fe818560208601610395565b610407816103c8565b840191505092915050565b600061041e83836103d9565b905092915050565b6000602082019050919050565b600061043e8261034d565b6104488185610358565b93508360208202850161045a85610369565b8060005b8581101561049657848403895281516104778582610412565b945061048283610426565b925060208a0199505060018101905061045e565b50829750879550505050505092915050565b600060208201905081810360008301526104c28184610433565b905092915050565b6000604051905090565b600080fd5b600080fd5b600080fd5b600080fd5b7f4e487b7100000000000000000000000000000000000000000000000000000000600052604160045260246000fd5b610520826103c8565b810181811067ffffffffffffffff8211171561053f5761053e6104e8565b5b80604052505050565b60006105526104ca565b905061055e8282610517565b919050565b600067ffffffffffffffff82111561057e5761057d6104e8565b5b610587826103c8565b9050602081019050919050565b82818337600083830152505050565b60006105b66105b184610563565b610548565b9050828152602081018484840111156105d2576105d16104e3565b5b6105dd848285610594565b509392505050565b600082601f8301126105fa576105f96104de565b5b813561060a8482602086016105a3565b91505092915050565b600060208284031215610629576106286104d4565b5b600082013567ffffffffffffffff811115610647576106466104d9565b5b610653848285016105e5565b91505092915050565b60008115159050919050565b6106718161065c565b82525050565b600060208201905061068c6000830184610668565b92915050565b6000819050919050565b6106a581610692565b82525050565b60006020820190506106c0600083018461069c565b92915050565b7f4e487b7100000000000000000000000000000000000000000000000000000000600052602260045260246000fd5b6000600282049050600182168061070d57607f821691505b60208210811415610721576107206106c6565b5b50919050565b600081905092915050565b600061073d82610379565b6107478185610727565b9350610757818560208601610395565b80840191505092915050565b600061076f8284610732565b915081905092915050565b7f4e487b7100000000000000000000000000000000000000000000000000000000600052603260045260246000fd5b60008190508160005260206000209050919050565b600081546107cb816106f5565b6107d58186610727565b945060018216600081146107f0576001811461080157610834565b60ff19831686528186019350610834565b61080a856107a9565b60005b8381101561082c5781548189015260018201915060208101905061080d565b838801955050505b50505092915050565b600061084982846107be565b915081905092915050565b7f4e487b7100000000000000000000000000000000000000000000000000000000600052601160045260246000fd5b600061088e82610692565b91507fffffffffffffffffffffffffffffffffffffffffffffffffffffffffffffffff8214156108c1576108c0610854565b5b60018201905091905056fea26469706673582212209a65f9a7d72de46cda0bc7431e19d016f6739d1586971b5e301de6ba37add56864736f6c634300080a0033",
  "immutableReferences": {},
  "source": "//SPDX-License-Identifier: SimPL-2.0\r\npragma solidity ^0.8.0;\r\npragma experimental ABIEncoderV2;\r\ncontract Register {\r\n    string[] users;    // \r\n\r\n    function addUser(string memory _add) public {\r\n        users.push(_add);\r\n    }\r\n\r\n    function getUsers () public view returns (string[] memory) {\r\n        return users;\r\n    }\r\n\r\n    function getCountOfUsers() public view returns (uint) {\r\n        return users.length;\r\n    }\r\n\r\n    function isUser(string memory _add) public view returns (bool) {\r\n        for (uint i = 0; i < users.length; i++) {\r\n            if (keccak256(abi.encodePacked(users[i])) == keccak256(abi.encodePacked(_add))) {\r\n                return true;\r\n            }\r\n        }\r\n        return false;\r\n    }\r\n\r\n}",
  "sourcePath": "E:\\RingBC\\contracts\\Register.sol",
  "compiler": {
    "name": "solc",
    "version": "0.8.10+commit.fc410830.Emscripten.clang"
  },
  "schemaVersion": "3.4.3",
  "updatedAt": "2021-12-16T03:46:19.123Z",
  "devdoc": {
    "kind": "dev",
    "methods": {},
    "version": 1
  },
  "userdoc": {
    "kind": "user",
    "methods": {},
    "version": 1
  }
}