{
  "contractName": "Task",
  "abi": [
    {
      "inputs": [],
      "stateMutability": "nonpayable",
      "type": "constructor"
    },
    {
      "inputs": [
        {
          "internalType": "string",
          "name": "_title",
          "type": "string"
        },
        {
          "internalType": "string",
          "name": "_descriptionOfTask",
          "type": "string"
        }
      ],
      "name": "addQuestion",
      "outputs": [],
      "stateMutability": "payable",
      "type": "function"
    },
    {
      "inputs": [],
      "name": "getTitle",
      "outputs": [
        {
          "internalType": "string",
          "name": "",
          "type": "string"
        }
      ],
      "stateMutability": "nonpayable",
      "type": "function"
    },
    {
      "inputs": [
        {
          "internalType": "address",
          "name": "sender",
          "type": "address"
        }
      ],
      "name": "ifAnswered",
      "outputs": [
        {
          "internalType": "bool",
          "name": "",
          "type": "bool"
        }
      ],
      "stateMutability": "nonpayable",
      "type": "function"
    },
    {
      "inputs": [
        {
          "internalType": "string",
          "name": "_answer",
          "type": "string"
        }
      ],
      "name": "answerQuestion",
      "outputs": [],
      "stateMutability": "nonpayable",
      "type": "function"
    },
    {
      "inputs": [],
      "name": "collectAnswers",
      "outputs": [
        {
          "internalType": "string[]",
          "name": "",
          "type": "string[]"
        }
      ],
      "stateMutability": "view",
      "type": "function"
    }
  ],
  "bytecode": "0x60806040523480156200001157600080fd5b506040518060400160405280600781526020017f64656661756c7400000000000000000000000000000000000000000000000000815250600290805190602001906200005f929190620000d4565b506040518060400160405280600781526020017f64656661756c740000000000000000000000000000000000000000000000000081525060039080519060200190620000ad929190620000d4565b506000600681905550600060078190555060006008819055506000600981905550620001e9565b828054620000e290620001b3565b90600052602060002090601f01602090048101928262000106576000855562000152565b82601f106200012157805160ff191683800117855562000152565b8280016001018555821562000152579182015b828111156200015157825182559160200191906001019062000134565b5b50905062000161919062000165565b5090565b5b808211156200018057600081600090555060010162000166565b5090565b7f4e487b7100000000000000000000000000000000000000000000000000000000600052602260045260246000fd5b60006002820490506001821680620001cc57607f821691505b60208210811415620001e357620001e262000184565b5b50919050565b610d1d80620001f96000396000f3fe60806040526004361061004a5760003560e01c80636995f2c91461004f5780637833f12a14610078578063a0ec18eb146100b5578063b55afeca146100d1578063ff3c1a8f146100fc575b600080fd5b34801561005b57600080fd5b506100766004803603810190610071919061071c565b610127565b005b34801561008457600080fd5b5061009f600480360381019061009a91906107c3565b6101d2565b6040516100ac919061080b565b60405180910390f35b6100cf60048036038101906100ca9190610826565b610258565b005b3480156100dd57600080fd5b506100e6610315565b6040516100f391906109e8565b60405180910390f35b34801561010857600080fd5b50610111610435565b60405161011e9190610a54565b60405180910390f35b80600460003373ffffffffffffffffffffffffffffffffffffffff1673ffffffffffffffffffffffffffffffffffffffff168152602001908152602001600020908051906020019061017a92919061051f565b506005819080600181540180825580915050600190039060005260206000200160009091909190915090805190602001906101b692919061051f565b50600660008154809291906101ca90610aaf565b919050555050565b60006040518060200160405280600081525080519060200120600460008473ffffffffffffffffffffffffffffffffffffffff1673ffffffffffffffffffffffffffffffffffffffff1681526020019081526020016000206040516102379190610bf8565b6040518091039020141561024e5760019050610253565b600090505b919050565b6000341161029b576040517f08c379a000000000000000000000000000000000000000000000000000000000815260040161029290610c5b565b60405180910390fd5b33600160006101000a81548173ffffffffffffffffffffffffffffffffffffffff021916908373ffffffffffffffffffffffffffffffffffffffff16021790555081600290805190602001906102f292919061051f565b50806003908051906020019061030992919061051f565b50346007819055505050565b606061031f6104c7565b61035e576040517f08c379a000000000000000000000000000000000000000000000000000000000815260040161035590610cc7565b60405180910390fd5b6005805480602002602001604051908101604052809291908181526020016000905b8282101561042c57838290600052602060002001805461039f90610b27565b80601f01602080910402602001604051908101604052809291908181526020018280546103cb90610b27565b80156104185780601f106103ed57610100808354040283529160200191610418565b820191906000526020600020905b8154815290600101906020018083116103fb57829003601f168201915b505050505081526020019060010190610380565b50505050905090565b60606002805461044490610b27565b80601f016020809104026020016040519081016040528092919081815260200182805461047090610b27565b80156104bd5780601f10610492576101008083540402835291602001916104bd565b820191906000526020600020905b8154815290600101906020018083116104a057829003601f168201915b5050505050905090565b6000600160009054906101000a900473ffffffffffffffffffffffffffffffffffffffff1673ffffffffffffffffffffffffffffffffffffffff163373ffffffffffffffffffffffffffffffffffffffff1614905090565b82805461052b90610b27565b90600052602060002090601f01602090048101928261054d5760008555610594565b82601f1061056657805160ff1916838001178555610594565b82800160010185558215610594579182015b82811115610593578251825591602001919060010190610578565b5b5090506105a191906105a5565b5090565b5b808211156105be5760008160009055506001016105a6565b5090565b6000604051905090565b600080fd5b600080fd5b600080fd5b600080fd5b6000601f19601f8301169050919050565b7f4e487b7100000000000000000000000000000000000000000000000000000000600052604160045260246000fd5b610629826105e0565b810181811067ffffffffffffffff82111715610648576106476105f1565b5b80604052505050565b600061065b6105c2565b90506106678282610620565b919050565b600067ffffffffffffffff821115610687576106866105f1565b5b610690826105e0565b9050602081019050919050565b82818337600083830152505050565b60006106bf6106ba8461066c565b610651565b9050828152602081018484840111156106db576106da6105db565b5b6106e684828561069d565b509392505050565b600082601f830112610703576107026105d6565b5b81356107138482602086016106ac565b91505092915050565b600060208284031215610732576107316105cc565b5b600082013567ffffffffffffffff8111156107505761074f6105d1565b5b61075c848285016106ee565b91505092915050565b600073ffffffffffffffffffffffffffffffffffffffff82169050919050565b600061079082610765565b9050919050565b6107a081610785565b81146107ab57600080fd5b50565b6000813590506107bd81610797565b92915050565b6000602082840312156107d9576107d86105cc565b5b60006107e7848285016107ae565b91505092915050565b60008115159050919050565b610805816107f0565b82525050565b600060208201905061082060008301846107fc565b92915050565b6000806040838503121561083d5761083c6105cc565b5b600083013567ffffffffffffffff81111561085b5761085a6105d1565b5b610867858286016106ee565b925050602083013567ffffffffffffffff811115610888576108876105d1565b5b610894858286016106ee565b9150509250929050565b600081519050919050565b600082825260208201905092915050565b6000819050602082019050919050565b600081519050919050565b600082825260208201905092915050565b60005b838110156109045780820151818401526020810190506108e9565b83811115610913576000848401525b50505050565b6000610924826108ca565b61092e81856108d5565b935061093e8185602086016108e6565b610947816105e0565b840191505092915050565b600061095e8383610919565b905092915050565b6000602082019050919050565b600061097e8261089e565b61098881856108a9565b93508360208202850161099a856108ba565b8060005b858110156109d657848403895281516109b78582610952565b94506109c283610966565b925060208a0199505060018101905061099e565b50829750879550505050505092915050565b60006020820190508181036000830152610a028184610973565b905092915050565b600082825260208201905092915050565b6000610a26826108ca565b610a308185610a0a565b9350610a408185602086016108e6565b610a49816105e0565b840191505092915050565b60006020820190508181036000830152610a6e8184610a1b565b905092915050565b7f4e487b7100000000000000000000000000000000000000000000000000000000600052601160045260246000fd5b6000819050919050565b6000610aba82610aa5565b91507fffffffffffffffffffffffffffffffffffffffffffffffffffffffffffffffff821415610aed57610aec610a76565b5b600182019050919050565b7f4e487b7100000000000000000000000000000000000000000000000000000000600052602260045260246000fd5b60006002820490506001821680610b3f57607f821691505b60208210811415610b5357610b52610af8565b5b50919050565b600081905092915050565b60008190508160005260206000209050919050565b60008154610b8681610b27565b610b908186610b59565b94506001821660008114610bab5760018114610bbc57610bef565b60ff19831686528186019350610bef565b610bc585610b64565b60005b83811015610be757815481890152600182019150602081019050610bc8565b838801955050505b50505092915050565b6000610c048284610b79565b915081905092915050565b7f4d75737420686176652061776172642100000000000000000000000000000000600082015250565b6000610c45601083610a0a565b9150610c5082610c0f565b602082019050919050565b60006020820190508181036000830152610c7481610c38565b9050919050565b7f4f6e6c79207265717565737465722063616e20646f2074686174210000000000600082015250565b6000610cb1601b83610a0a565b9150610cbc82610c7b565b602082019050919050565b60006020820190508181036000830152610ce081610ca4565b905091905056fea26469706673582212207e1f88c334473d61d85b0d70ac37021ced5ca32724eb97b3eed4857ddaae8f0064736f6c634300080a0033",
  "immutableReferences": {},
  "source": "//SPDX-License-Identifier: SimPL-2.0\r\npragma solidity ^0.8.0;\r\nimport \"./Register.sol\";\r\n\r\ncontract Task {\r\n    address payable[] workers;   // workers\r\n    address requester;  //  requester\r\n    string title;   // \r\n    string descriptionOfTask;    // \r\n    mapping(address => string) answerList;  // \r\n    string[] list;\r\n    uint answerCount;   // \r\n    uint award;    // \r\n    uint numberOfWorkersNeeded;   // \r\n    uint unitAward; // \r\n\r\n    modifier onlyRequester {    // \r\n        require(isRequester(), \"Only requester can do that!\");\r\n        _;\r\n    }\r\n\r\n    constructor() public {\r\n        title = \"default\";\r\n        descriptionOfTask = \"default\";\r\n        answerCount = 0;\r\n        award = 0;\r\n        numberOfWorkersNeeded = 0;\r\n        unitAward = 0;\r\n    }\r\n\r\n    function addQuestion(string memory _title, string memory _descriptionOfTask) payable public {\r\n        require(msg.value > 0 ether, \"Must have award!\"); // \r\n        requester = msg.sender;\r\n        title = _title;\r\n        descriptionOfTask = _descriptionOfTask;\r\n        award = msg.value;\r\n    }\r\n\r\n    function getTitle() public returns(string memory) {\r\n        return title;\r\n    }\r\n\r\n    function ifAnswered(address sender) public returns(bool){\r\n        if (keccak256(bytes(answerList[sender]))  == keccak256(bytes(\"\")))\r\n            return true;\r\n        return false;\r\n    }\r\n\r\n    // \r\n    function answerQuestion(string memory _answer) public {\r\n        answerList[msg.sender] = _answer;\r\n        list.push(_answer);\r\n        answerCount++;\r\n    }\r\n\r\n    // \r\n    function collectAnswers() onlyRequester public view returns(string[] memory) {\r\n        return list;\r\n    }\r\n\r\n    function isRequester() view private returns(bool) { //  \r\n        return msg.sender == requester;\r\n    }\r\n}\r\n",
  "sourcePath": "E:\\RingBC\\contracts\\Task.sol",
  "compiler": {
    "name": "solc",
    "version": "0.8.10+commit.fc410830.Emscripten.clang"
  },
  "schemaVersion": "3.4.3",
  "updatedAt": "2021-12-16T03:46:19.132Z",
  "devdoc": {
    "kind": "dev",
    "methods": {},
    "version": 1
  },
  "userdoc": {
    "kind": "user",
    "methods": {},
    "version": 1
  }
}