{
  "contractName": "Task",
  "abi": [
    {
      "inputs": [],
      "payable": false,
      "stateMutability": "nonpayable",
      "type": "constructor"
    },
    {
      "constant": false,
      "inputs": [
        {
          "internalType": "string",
          "name": "_title",
          "type": "string"
        },
        {
          "internalType": "string",
          "name": "_descriptionOfTask",
          "type": "string"
        }
      ],
      "name": "addQuestion",
      "outputs": [],
      "payable": true,
      "stateMutability": "payable",
      "type": "function"
    },
    {
      "constant": false,
      "inputs": [],
      "name": "getTitle",
      "outputs": [
        {
          "internalType": "string",
          "name": "",
          "type": "string"
        }
      ],
      "payable": false,
      "stateMutability": "nonpayable",
      "type": "function"
    },
    {
      "constant": false,
      "inputs": [
        {
          "internalType": "string",
          "name": "sender",
          "type": "string"
        }
      ],
      "name": "ifAnswered",
      "outputs": [
        {
          "internalType": "bool",
          "name": "",
          "type": "bool"
        }
      ],
      "payable": false,
      "stateMutability": "nonpayable",
      "type": "function"
    },
    {
      "constant": false,
      "inputs": [
        {
          "internalType": "contract Register",
          "name": "reg",
          "type": "address"
        },
        {
          "internalType": "string",
          "name": "user",
          "type": "string"
        },
        {
          "internalType": "string",
          "name": "_answer",
          "type": "string"
        }
      ],
      "name": "answerQuestion",
      "outputs": [],
      "payable": false,
      "stateMutability": "nonpayable",
      "type": "function"
    },
    {
      "constant": true,
      "inputs": [],
      "name": "collectAnswers",
      "outputs": [
        {
          "internalType": "string[]",
          "name": "",
          "type": "string[]"
        }
      ],
      "payable": false,
      "stateMutability": "view",
      "type": "function"
    }
  ],
  "bytecode": "0x608060405234801561001057600080fd5b506040518060400160405280600781526020017f64656661756c74000000000000000000000000000000000000000000000000008152506002908051906020019061005c9291906100ce565b506040518060400160405280600781526020017f64656661756c7400000000000000000000000000000000000000000000000000815250600390805190602001906100a89291906100ce565b506000600681905550600060078190555060006008819055506000600981905550610173565b828054600181600116156101000203166002900490600052602060002090601f016020900481019282601f1061010f57805160ff191683800117855561013d565b8280016001018555821561013d579182015b8281111561013c578251825591602001919060010190610121565b5b50905061014a919061014e565b5090565b61017091905b8082111561016c576000816000905550600101610154565b5090565b90565b610e63806101826000396000f3fe60806040526004361061004a5760003560e01c80632954d3141461004f578063a0ec18eb14610078578063b55afeca14610094578063bd29fab1146100bf578063ff3c1a8f146100fc575b600080fd5b34801561005b57600080fd5b5061007660048036036100719190810190610758565b610127565b005b610092600480360361008d9190810190610818565b6102c0565b005b3480156100a057600080fd5b506100a961037d565b6040516100b69190610b7b565b60405180910390f35b3480156100cb57600080fd5b506100e660048036036100e191908101906107d7565b6104ad565b6040516100f39190610b9d565b60405180910390f35b34801561010857600080fd5b50610111610512565b60405161011e9190610bb8565b60405180910390f35b8273ffffffffffffffffffffffffffffffffffffffff166305bbd7e0836040518263ffffffff1660e01b81526004016101609190610bb8565b60206040518083038186803b15801561017857600080fd5b505afa15801561018c573d6000803e3d6000fd5b505050506040513d601f19601f820116820180604052506101b0919081019061072f565b6101ef576040517f08c379a00000000000000000000000000000000000000000000000000000000081526004016101e690610bfa565b60405180910390fd5b6101f8826104ad565b610237576040517f08c379a000000000000000000000000000000000000000000000000000000000815260040161022e90610bda565b60405180910390fd5b806004836040516102489190610b64565b9081526020016040518091039020908051906020019061026992919061060c565b5060058190806001815401808255809150509060018203906000526020600020016000909192909190915090805190602001906102a792919061060c565b5050600660008154809291906001019190505550505050565b60003411610303576040517f08c379a00000000000000000000000000000000000000000000000000000000081526004016102fa90610c3a565b60405180910390fd5b33600160006101000a81548173ffffffffffffffffffffffffffffffffffffffff021916908373ffffffffffffffffffffffffffffffffffffffff160217905550816002908051906020019061035a92919061060c565b50806003908051906020019061037192919061060c565b50346007819055505050565b60606103876105b4565b6103c6576040517f08c379a00000000000000000000000000000000000000000000000000000000081526004016103bd90610c1a565b60405180910390fd5b6005805480602002602001604051908101604052809291908181526020016000905b828210156104a4578382906000526020600020018054600181600116156101000203166002900480601f0160208091040260200160405190810160405280929190818152602001828054600181600116156101000203166002900480156104905780601f1061046557610100808354040283529160200191610490565b820191906000526020600020905b81548152906001019060200180831161047357829003601f168201915b5050505050815260200190600101906103e8565b50505050905090565b600060405180602001604052806000815250805190602001206004836040516104d69190610b64565b90815260200160405180910390206040516104f19190610b4d565b60405180910390201415610508576001905061050d565b600090505b919050565b606060028054600181600116156101000203166002900480601f0160208091040260200160405190810160405280929190818152602001828054600181600116156101000203166002900480156105aa5780601f1061057f576101008083540402835291602001916105aa565b820191906000526020600020905b81548152906001019060200180831161058d57829003601f168201915b5050505050905090565b6000600160009054906101000a900473ffffffffffffffffffffffffffffffffffffffff1673ffffffffffffffffffffffffffffffffffffffff163373ffffffffffffffffffffffffffffffffffffffff1614905090565b828054600181600116156101000203166002900490600052602060002090601f016020900481019282601f1061064d57805160ff191683800117855561067b565b8280016001018555821561067b579182015b8281111561067a57825182559160200191906001019061065f565b5b509050610688919061068c565b5090565b6106ae91905b808211156106aa576000816000905550600101610692565b5090565b90565b6000815190506106c081610df2565b92915050565b6000813590506106d581610e09565b92915050565b600082601f8301126106ec57600080fd5b81356106ff6106fa82610c87565b610c5a565b9150808252602083016020830185838301111561071b57600080fd5b610726838284610d9f565b50505092915050565b60006020828403121561074157600080fd5b600061074f848285016106b1565b91505092915050565b60008060006060848603121561076d57600080fd5b600061077b868287016106c6565b935050602084013567ffffffffffffffff81111561079857600080fd5b6107a4868287016106db565b925050604084013567ffffffffffffffff8111156107c157600080fd5b6107cd868287016106db565b9150509250925092565b6000602082840312156107e957600080fd5b600082013567ffffffffffffffff81111561080357600080fd5b61080f848285016106db565b91505092915050565b6000806040838503121561082b57600080fd5b600083013567ffffffffffffffff81111561084557600080fd5b610851858286016106db565b925050602083013567ffffffffffffffff81111561086e57600080fd5b61087a858286016106db565b9150509250929050565b60006108908383610a14565b905092915050565b60006108a382610cd8565b6108ad8185610d06565b9350836020820285016108bf85610cb3565b8060005b858110156108fb57848403895281516108dc8582610884565b94506108e783610cf9565b925060208a019950506001810190506108c3565b50829750879550505050505092915050565b61091681610d61565b82525050565b600081546001811660008114610939576001811461095e576109a2565b607f600283041661094a8187610d17565b955060ff19831686528086019350506109a2565b6002820461096c8187610d17565b955061097785610cc3565b60005b828110156109995781548189015260018201915060208101905061097a565b82880195505050505b505092915050565b60006109b582610cee565b6109bf8185610d33565b93506109cf818560208601610dae565b6109d881610de1565b840191505092915050565b60006109ee82610cee565b6109f88185610d44565b9350610a08818560208601610dae565b80840191505092915050565b6000610a1f82610ce3565b610a298185610d22565b9350610a39818560208601610dae565b610a4281610de1565b840191505092915050565b6000610a5a601d83610d33565b91507f4d757374206e6f74207375626d697474656420616e20616e73776572210000006000830152602082019050919050565b6000610a9a600f83610d33565b91507f4d757374206265206120757365722100000000000000000000000000000000006000830152602082019050919050565b6000610ada601b83610d33565b91507f4f6e6c79207265717565737465722063616e20646f20746861742100000000006000830152602082019050919050565b6000610b1a601083610d33565b91507f4d757374206861766520617761726421000000000000000000000000000000006000830152602082019050919050565b6000610b59828461091c565b915081905092915050565b6000610b7082846109e3565b915081905092915050565b60006020820190508181036000830152610b958184610898565b905092915050565b6000602082019050610bb2600083018461090d565b92915050565b60006020820190508181036000830152610bd281846109aa565b905092915050565b60006020820190508181036000830152610bf381610a4d565b9050919050565b60006020820190508181036000830152610c1381610a8d565b9050919050565b60006020820190508181036000830152610c3381610acd565b9050919050565b60006020820190508181036000830152610c5381610b0d565b9050919050565b6000604051905081810181811067ffffffffffffffff82111715610c7d57600080fd5b8060405250919050565b600067ffffffffffffffff821115610c9e57600080fd5b601f19601f8301169050602081019050919050565b6000819050602082019050919050565b60008190508160005260206000209050919050565b600081519050919050565b600081519050919050565b600081519050919050565b6000602082019050919050565b600082825260208201905092915050565b600081905092915050565b600082825260208201905092915050565b600082825260208201905092915050565b600081905092915050565b6000610d5a82610d7f565b9050919050565b60008115159050919050565b6000610d7882610d4f565b9050919050565b600073ffffffffffffffffffffffffffffffffffffffff82169050919050565b82818337600083830152505050565b60005b83811015610dcc578082015181840152602081019050610db1565b83811115610ddb576000848401525b50505050565b6000601f19601f8301169050919050565b610dfb81610d61565b8114610e0657600080fd5b50565b610e1281610d6d565b8114610e1d57600080fd5b5056fea365627a7a72315820d8f93aac7574579f96b1828b7d7e8625c8ce8f7c34f7b1fc39cb73c059600ec76c6578706572696d656e74616cf564736f6c63430005110040",
  "source": "pragma solidity >=0.5.0 <0.6.0;\r\npragma experimental ABIEncoderV2;\r\nimport \"./Register.sol\";\r\n\r\ncontract Task{\r\n    address payable[] workers;   // 记录workers，方便转账\r\n    address requester;  // 记录 requester\r\n    string title;   // 任务标题\r\n    string descriptionOfTask;    // 任务描述\r\n    mapping(string => string) answerList;  // 答案列表\r\n    string[] list;\r\n    uint answerCount;   // 已完成答案数\r\n    uint award;    // 酬金\r\n    uint numberOfWorkersNeeded;   // 需要完成的工人数\r\n    uint unitAward; // 单个工人获得的酬金数\r\n\r\n    modifier onlyRequester {    // 创建限定符\r\n        require(isRequester(), \"Only requester can do that!\");\r\n        _;\r\n    }\r\n\r\n    constructor() public {\r\n        title = \"default\";\r\n        descriptionOfTask = \"default\";\r\n        answerCount = 0;\r\n        award = 0;\r\n        numberOfWorkersNeeded = 0;\r\n        unitAward = 0;\r\n    }\r\n\r\n    function addQuestion(string memory _title, string memory _descriptionOfTask) payable public {\r\n        require(msg.value > 0 ether, \"Must have award!\"); // 必须预存酬金\r\n        requester = msg.sender;\r\n        title = _title;\r\n        descriptionOfTask = _descriptionOfTask;\r\n        award = msg.value;\r\n    }\r\n\r\n    function getTitle() public returns(string memory) {\r\n        return title;\r\n    }\r\n\r\n    function ifAnswered(string memory sender) public returns(bool){\r\n        if (keccak256(bytes(answerList[sender]))  == keccak256(bytes(\"\")))\r\n            return true;\r\n        return false;\r\n    }\r\n\r\n    // 回答问题\r\n    function answerQuestion(Register reg, string memory user, string memory _answer) public {\r\n        require(reg.isUser(user), \"Must be a user!\");\r\n        require(ifAnswered(user), \"Must not submitted an answer!\");\r\n        answerList[user] = _answer;\r\n        list.push(_answer);\r\n        answerCount++;\r\n    }\r\n\r\n    // 收集答案\r\n    function collectAnswers() onlyRequester public view returns(string[] memory) {\r\n        return list;\r\n    }\r\n\r\n    function isRequester() view private returns(bool) { //  对外不可见\r\n        return msg.sender == requester;\r\n    }\r\n}\r\n",
  "sourcePath": "E:\\RingBC\\contracts\\Task.sol",
  "compiler": {
    "name": "solc",
    "version": "0.5.17+commit.d19bba13.Emscripten.clang"
  },
  "schemaVersion": "3.4.4",
  "updatedAt": "2021-12-30T07:42:46.549Z",
  "devdoc": {
    "methods": {}
  },
  "userdoc": {
    "methods": {}
  }
}